:020000040800F2
:1000000090470020BD010008690200086102000855
:10001000650200085B020008DD0300080000000024
:100020000000000000000000000000000F030008B6
:100030005F020008000000006B02000811030008C6
:10004000D7010008D7010008D7010008D701000830
:10005000D7010008D7010008D7010008D701000820
:10006000D7010008D7010008D7010008D701000810
:10007000D7010008D7010008D7010008D701000800
:10008000D7010008D7010008D7010008D7010008F0
:10009000D7010008D7010008D7010008D7010008E0
:1000A000D7010008D7010008D7010008D7010008D0
:1000B000D70100088D030008D7010008D701000808
:1000C000D7010008D7010008D7010008D7010008B0
:1000D000D7010008D7010008D7010008D7010008A0
:1000E000D7010008D7010008A5030008D7010008C0
:1000F000D7010008D7010008D7010008D701000880
:10010000D7010008D7010008D7010008D70100086F
:10011000D7010008D7010008D7010008D70100085F
:10012000D7010008D7010008D7010008D70100084F
:10013000D7010008D7010008D7010008D70100083F
:10014000D7010008D7010008D7010008950300086F
:10015000D7010008D7010008D7010008D70100081F
:10016000D7010008D7010008D7010008D70100080F
:10017000D7010008D7010008D701000800000000DF
:10018000D7010008D7010008D7010008D7010008EF
:10019000D7010008D7010008D7010008D7010008DF
:1001A000D7010008D7010008DFF80CD000F018F8DC
:1001B0000048004775240008904700200648804703
:1001C00006480047FEE7FEE7FEE7FEE7FEE7FEE73C
:1001D000FEE7FEE7FEE7FEE715030008A9010008B9
:1001E000064C074D06E0E06840F0010394E8070084
:1001F00098471034AC42F6D3FFF7DAFFF05200080C
:100200001053000870B58C1810F8015B15F0070347
:1002100001D110F8013B2A1106D110F8012B03E09F
:1002200010F8016B01F8016B5B1EF9D12B0705D4A7
:100230000023521E0DD401F8013BFAE710F8013BF0
:10024000CB1A921C03E013F8015B01F8015B521E0C
:10025000F9D5A142D8D3002070BD00BFFEE770479A
:1002600000BFFEE700BFFEE77047704708B50122F8
:1002700011A1124801F016F91149087008460078DA
:100280000D2817D14FF480500E4B00220121009011
:1002900009A000F095FD0A4908700846007848B9A1
:1002A000002205A1104601F0FDF8012202A1034839
:1002B00001F0F8F8002008BD323A0000E402002006
:1002C00008000020402300202DE9F04106460F469B
:1002D00014461D4604FB05F082B23946304602F052
:1002E00069FE0020BDE8F0812DE9F04107460C468B
:1002F00015461E46204602F0CBFF05FB06F082B2F3
:100300002146384602F080FE0020BDE8F0817047AB
:100310007047000010B51948006840F47000174994
:1003200008601748006840F001001549086014494A
:100330000831096841F08001114A0832116000203B
:1003400000E0401C1428FCD300200D49083108604F
:100350000B4800680B490840094908600A48091D14
:100360000860081F006820F48020091F0860002032
:1003700003490C31086003F0C5F910BD88ED00E0B9
:1003800000380240FFFFF6FE1030002410B503F0E5
:100390008BFD10BD10B5024804F052FD10BD0000E9
:1003A0000C00002010B50C48C07980B1FFF7B2FFF7
:1003B00003F068F9002002F087FD002002F054FDF0
:1003C00040F6075002F06EFD034803F0ADFA4FF41B
:1003D000802000F0EFFC10BD0C00002000BFFEE705
:1003E00002E008C8121F08C1002AFAD170477047FE
:1003F000002001E001C1121F002AFBD1704700005C
:100400002DE9F04781460D46144627480078B8B9D3
:100410000120254908702548056025488068254940
:10042000086008460068A04201D9084604602148D7
:1004300003681E4881210268484604F063F831E0F1
:100440001948007801281ED1194846688068194962
:100450000968A0EB010800273A464146304600F003
:100460002DF81548114908600D2012490860032035
:100470000D4908700F4803680C48812102684846FE
:1004800004F040F80EE00848007803280AD1002064
:10049000054908701F23064A0121484603F074FFEE
:1004A000BDE8F08700BFFBE786010020880100203F
:1004B000504300208C0100207043002010B5044BF5
:1004C000044C23602346586099601A7310BD0000E5
:1004D000555342537043002070B504460D4600202A
:1004E000E070401E20632946204602F02FF808B134
:1004F000042070BD04F2322001F0B5FF4AF6552108
:10050000884201D00320F4E794F83400E92807D0AA
:1005100094F83400EB2803D094F83400E82811D183
:10052000032209A104F16A0001F0E8FF08B90020E4
:10053000DFE7052205A104F1860001F0DFFF08B91D
:100540000020D6E70220D4E7464154004641543308
:1005500032000000024600E0521C107810B1107802
:100560008842F9D1107870470246891E9069801E32
:10057000884201D8002070475389D06A03FB0100EC
:10058000F9E72DE9F04782468846DAF80040B8F1ED
:10059000000F06D1276917B1A069B84215D8012705
:1005A00013E04146504601F0ADFD0546022D02D252
:1005B0000120BDE8F087681C08B92846F9E7A06962
:1005C000A84201D92846F4E74746606908B90020E7
:1005D000EFE70026474518D17E1CA069B04200D83D
:1005E00002263146504601F08DFD0546012D01D011
:1005F000681C08B92846DCE73DB12569022D03D304
:10060000A069A84200D92F460026E6B93E4600BFA1
:10061000761CA069B04204D80226BE4201D900204F
:10062000C7E73146504601F06DFD054605B909E0C2
:10063000012D01D0681C08B92846BAE7BE42E7D1AF
:100640000020B6E700BF4FF0FF323146204602F0EF
:100650003BFB8146B9F1000F08D1B8F1000F05D07E
:1006600032464146204602F02FFB8146B9F1000F89
:100670000DD12661D4E90510801E814202D860693F
:10068000401E6061207940F00100207107E0B9F15F
:10069000010F02D14FF0FF3000E001200646304646
:1006A00087E700002DE9F35F8946D9F800800098BC
:1006B00000F120050B222021284601F03EFF0020FA
:1006C000074606464FF0080B00BF3046761C18F868
:1006D0000040202C00DC4AE02F2C01D05C2C0AD1F9
:1006E00000E0761C18F806002F28FAD018F806004B
:1006F0005C28F6D03BE02E2C01D05F450BD3BBF13C
:100700000B0F01D02E2C02D00620BDE8FC9F08273D
:100710004FF00B0BD9E7204600F046F8A8B1304661
:10072000761C18F800A0504600F058F818B1ABF14C
:100730000100B84201D80620E7E738467F1C2C5458
:1007400038467F1C05F800A010E0214612A0FFF7F4
:1007500001FF08B10620D8E7612C04DB7A2C02DC0B
:10076000A4F12000C4B238467F1C2C54ADE700BF72
:1007700008EB0600C9F800000FB90620C5E7287885
:10078000E52801D105202870202C01DC042000E0A0
:100790000020E8720020B8E7222A2B2C3A3B3C3D8F
:1007A0003E3F5B5D7C7F000001460B48007888423D
:1007B0000FDC09484078884201DB01207047064879
:1007C0008078884205DC0448C078884201DB01203B
:1007D000F4E70020F2E70000C85200080146104884
:1007E0000079884219DC0E484079884201DB0120FB
:1007F00070470B488079884205DC0948C0798842F7
:1008000001DB0120F4E70648007A884205DC044851
:10081000407A884201DB0120EAE70020E8E7000097
:10082000C85200082DE9F04104460E46D4F8008075
:100830000021204600F061F90546EDB9002700BF10
:100840004046A16901F082FE054605B113E0E0696A
:100850000078E52802D0E069007820B9781C0746C6
:10086000B04201D107E000270121204600F070F8D6
:100870000546002DE4D000BF042D00D107252846F1
:10088000BDE8F0812DE9F04704468946204602F094
:10089000FFFD10B10120BDE8F08749462046FFF773
:1008A00063FE064626634FF48052002104F13400B3
:1008B00001F043FE04F134080127002500E03D4427
:1008C0006089A84207D9721960783B46414600F01A
:1008D000EDF90028F3D06089A84201D00120DAE7C1
:1008E0000020D8E72DE9F041044627680021204682
:1008F00000F003F9054615B12846BDE8F08100BFB8
:100900003846A16901F022FE054605B11DE0E06907
:1009100006780EB9042518E0E069C07A00F03F00BF
:10092000A071E069C07A00F0080038B90B2204F128
:100930002001E06901F0E2FD00B906E00021204657
:1009400000F006F80546002DDAD000BF2846D4E7AF
:100950002DE9F041044688462668206900F1200709
:10096000B7F5001F01D30020A061A06910B90420D1
:10097000BDE8F081B089B7FBF0F100FB11700028F1
:1009800047D1A069401CA061606938B93089B0EBDB
:10099000571F3ED80020A0610420E9E7B089B7FBCB
:1009A000F0F07189491E084098BB2046616901F04A
:1009B000A9FB0546012D01D80220D9E7681C08B91A
:1009C0000120D5E7B069A8421DD8B8F1000F03D1C6
:1009D0000020A0610420CBE720466169FFF7D1FD2C
:1009E00005460DB90720C3E7012D01D10220BFE75D
:1009F000681C08B90120BBE729463046FFF742FFD3
:100A000008B10120B4E7656129463046FFF7ACFD27
:100A1000A0612761B089B7FBF0F100FB117106F10D
:100A200034000844E0610020A2E72DE9F0470446C5
:100A300088460425D4F8009027E04846A16901F0D3
:100A400085FD054605B123E0E06906780EB9042569
:100A50001EE0E069C07A00F03F07A771E52E0DD0D7
:100A60002E2E0BD00F2F09D027F02000082801D1FF
:100A7000012000E00020404500D109E0002120468F
:100A8000FFF766FF054605B102E0A0690028D4D152
:100A900000BF0DB10020A0612846BDE8F08770B509
:100AA0000446266801212046FFF7BCFE054695B99D
:100AB0003046A16901F04AFD054665B920220021B2
:100AC000E06901F03AFD0B2204F12001E06901F038
:100AD00027FD0120F070284670BD70B504462668D9
:100AE0003046A16901F032FD054625B9E520E169EE
:100AF00008700120F070284670BD2DE9F0410446D1
:100B00000E462568B6F5001F02D206F01F0010B190
:100B10000220BDE8F0812661A7681FB92878032864
:100B200000DBAF6A47B92889B0EB561F01D8022015
:100B3000EFE7A86AA0611DE06889A98900FB01F8B8
:100B400011E03946204601F0DDFA0746781C08B965
:100B50000120DEE7022F02D3A869B84201D80220A3
:100B6000D7E7A6EB08064645EBD239462846FFF7FD
:100B7000FBFCA0616761A06908B90220C9E7A889E8
:100B8000B6FBF0F0A1690844A061A889B6FBF0F1BA
:100B900000FB116105F134000844E0610020B8E772
:100BA00070B50446012534B1012C06D0022C06D0C4
:100BB000032C0BD108E0284670BD2846FCE702F064
:100BC000B5FA00252846F7E72846F5E70120F3E7C0
:100BD00010B50346042433B1012B06D0022B06D0F6
:100BE000032B1CD119E0204610BD2046FCE701294B
:100BF00004D0022906D003290BD107E04FF400707E
:100C0000106006E04FF48050108002E00120106078
:100C100000BF00BF00242046E6E72046E4E70420AA
:100C2000E2E72DE9F04105460E4617461C464FF017
:100C3000040835B1012D07D0022D07D0032D13D1A3
:100C400010E04046BDE8F0814046FBE74FF6FF70FC
:100C500000EA04323903304602F0ACF94FF00008E4
:100C60004046EFE74046EDE70420EBE770B5044669
:100C7000012534B1012C06D0022C06D0032C10D152
:100C80000DE0284670BD2846FCE702F0D7FA064979
:100C9000884201D1002500E001252846F2E72846D8
:100CA000F0E70120EEE700001540C8002DE9F04113
:100CB00006460F4614461D464FF0040836B1012E75
:100CC00007D0022E07D0032E16D113E04046BDE810
:100CD000F0814046FBE7200302F0DAFA4FF6FF709E
:100CE00000EA05322103384602F08EF94FF0000881
:100CF0004046ECE74046EAE70420E8E710B52C4B15
:100D00001B6883432A4C2360231D1B688343241DD7
:100D10002360231D1B688343241D2360231D1B6840
:100D20008343241D236011B101290ED105E0204B1E
:100D30001B6803431E4C236008E01D4B1B1D1B68F2
:100D400003431B4C241D236000E000BF00BF22B101
:100D5000012A0FD0022A27D119E0154B08331B684E
:100D60000343134C08342360231D1B688343241D55
:100D700023601AE00E4B08331B6883430C4C083485
:100D80002360231D1B680343241D23600DE0084BD3
:100D900008331B680343064C08342360231D1B687B
:100DA0000343241D236000E000BF00BF10BD00000E
:100DB000003C01400149086070470000143C0140BC
:100DC0002DE9FF4F95B01746012014904002139073
:100DD00015A801F035FA02900298002803DA0B20DA
:100DE00019B0BDE8F08FFC49029851F8200028B1F5
:100DF0000021F94A029852F8200001700298C0B20E
:100E00001190002010901198FFF7CAFE01900198F0
:100E100000F0010008B10320E2E7019800F00400AF
:100E200008B10A20DCE70CAA03211198FFF7D0FED5
:100E300050B90C9840B10C98B0F5004F04D80C98FC
:100E4000401E0C99084008B101200C900FAA022105
:100E50001198FFF7BDFE08B10120C1E7BDF83C00C5
:100E6000B0F5805F0BDCBDF83C00B0F5007F06DB21
:100E7000BDF83C00401EBDF83C10084008B1012000
:100E8000AEE71FB1BDF83C00874205D3B7F1807FC4
:100E900002D8781E384008B11320A1E7BDF83C0005
:100EA000B7FBF0F7189CBDF83C102298B0FBF1F0AE
:100EB0000D90BDF83C100D9848430E900CB10D9864
:100EC00008B911208CE700BF07AA01211198FFF78C
:100ED0007FFE08B1012083E7169800F0080008B1F2
:100EE000002000E03F2083460798584501D20E209D
:100EF00076E70798A0EB0B0007900798802801D2AF
:100F00000E206DE700BF00BF802F01D9132067E7D7
:100F1000169800F0020050B1169800F00700022861
:100F200003D0169800F0010008B9032607E01698D0
:100F300000F0010008B9132052E7022600BF00BFED
:100F400000BF3D46032E2FD1A5B907984FEA50495F
:100F500000200390012503E00398401C03906D00DE
:100F60009E49039831F8100020B1039831F8100021
:100F70004845F1D90798B0FBF5F8082000EB880048
:100F8000BDF83C100844401EB0FBF1F00590202055
:100F90000690002004904FF6F570804502D99048E5
:100FA00080453BD90E201BE7A5B907984FEA1039B9
:100FB00000200390012503E00398401C03906D007E
:100FC0008849039831F8100020B1039831F81000D7
:100FD0004845F1D90798B0FBF5F840F6F570804523
:100FE00003D9042000EB480906E0012608EB48007D
:100FF000401C032101EB5009BDF83C004844401E51
:10100000BDF83C10B0FBF1F0059001200690BDF852
:101010003C004FF48041B1FBF0F004900698584436
:1010200009900999059801440498084408900C997E
:1010300008980844401E491E20EA01010898A1EBC7
:101040000009032E06D106984844069009984844A2
:10105000099002E0059848440590089800EB0510B7
:10106000A0EB0B000799884201D90E20B8E6DDE914
:101070000601091A0598091A0498081AB0FBF5F830
:10108000032E0AD14FF6F570804506D81FB96808BF
:10109000071E00D031E00E20A2E6022E24D14FF62A
:1010A000F570804514D92FB94020B0EB450F01D31E
:1010B0006F0022E0169800F0020008B103261CE041
:1010C00027B968000746802800D816E00E2087E67A
:1010D00040F6F570804507D827B968000746802894
:1010E00000D80AE00E207BE6012E05D140F6F5700F
:1010F000804501D90E2073E600E022E700BFBDF86D
:101100003C200021204601F018FA0B2236A120468F
:1011100001F006FABDF83C1004F10B0002F069F989
:101120006573069881B204F10E0002F062F90120A5
:101130002074032E01D1002001E04FF4007001461D
:1011400004F1110002F055F90798B0F5803F06D27E
:10115000079881B204F1130002F04BF904E004F1A6
:101160002000079902F039F9F82060753F2104F159
:10117000180002F03EF9FF2104F11A0002F039F9DB
:10118000594604F11C0002F028F9032E38D101F071
:1011900053F80146009004F1430002F01EF904F1F7
:1011A0002400059902F019F9022104F12C0002F043
:1011B00014F9012104F1300002F01BF9062104F1B9
:1011C000320002F016F9802084F84000292084F8CB
:1011D000420013220EE0000080430020E05200088D
:1011E000F5FFFF0FD2520008EBFE904D53444F53D2
:1011F000352E30009EA104F1470001F091F919E06D
:1012000001F01AF80146009004F1270002F0E5F819
:10121000059881B204F1160002F0EBF8802084F802
:101220002400292084F82600132296A104F12B0023
:1012300001F076F94AF6552104F5FF7002F0D9F86D
:1012400001235A4621461198FFF730FD08B10120CD
:10125000C6E5032E34D101230BF106022146119875
:10126000FFF724FDBDF83C200021204601F065F980
:101270008949204602F0B1F8884904F5F27002F07D
:10128000ACF8A8F1010104F5F47002F0A6F802210F
:1012900004F5F67002F0A1F84AF6552104F5FF7046
:1012A00002F0A7F801230BF1070221461198FFF77E
:1012B000FDFC01230BF1010221461198FFF7F6FC1A
:1012C000002120460E9A01F038F909980B90002071
:1012D000039042E0032E0FD16FF00701204602F089
:1012E0007CF8311F201D02F078F86FF0704104F196
:1012F000080002F072F809E0012E01D1684801E00F
:101300006FF007000146204602F067F805980A9042
:1013100000BF0D990A98884201D90D9800E00A98FB
:1013200081464B4621460B9A1198FFF7BFFC08B146
:10133000012055E5BDF83C200021204601F0FDF8D4
:101340000B9848440B900A98A0EB09000A900A9861
:101350000028DED10398401C039003980028B9D0E0
:10136000032E01D1284600E004980A9000BF0D9991
:101370000A98884201D90D9800E00A9881464B46A8
:1013800021460B9A1198FFF791FC08B1012027E53F
:101390000B9848440B900A98A0EB09000A900A9811
:1013A0000028E4D100BF032E02D10C2012900CE0E3
:1013B0000798B0F5803F02D30620129005E0022E78
:1013C00001D1042000E00120129000BF169800F027
:1013D0000800E0BBBDF83C200021204601F0ADF83C
:1013E0004AF6552104F5FF7002F003F804F5DF7AA0
:1013F00000208AF8000001208AF801008AF8020023
:1014000000208AF8030012988AF8040007985844CC
:1014100043F6C161B0FBF1F9FE208AF80500C02057
:1014200000EA990040F03F008AF806008AF8079029
:1014300059460AF1080001F0D0FF0AF10C000799A3
:1014400001F0CBFF012300222146119800E004E0C7
:10145000FFF72CFC08B10120C2E4002211461198CC
:10146000FFF7B6FB08B10120BAE40020B8E40000A1
:101470004E4F204E414D45202020204641543332CE
:10148000202020004E4F204E414D45202020204658
:10149000415420202020200052526141727241614B
:1014A000F8FFFF00F7B582B016460398019001A837
:1014B00000F0C6FE0546002D02DA0B2005B0F0BD97
:1014C0000C4850F825400CB100202070029810B153
:1014D0000020029908700749029841F825000EB9CA
:1014E0000020EBE7002202A903A800F03DFA07461E
:1014F0003846E3E7804300202DE9F74F8EB00446DD
:1015000016461CB9092011B0BDE8F08F06F03F0661
:10151000324602A90FA800F027FA0546002D7DD11A
:101520000298039003A80F9900F012FD05462DB90B
:101530009DF8370000F0800000B1062506F01C0081
:10154000002850D045B1042D03D103A8FFF7A7FA16
:10155000054646F008060AE09DF8120000F011006A
:1015600008B1072503E006F0040000B10825002DAE
:101570004AD106F00800002846D00A99029800F0E7
:1015800053FF814600F058FE00900A9901F10E00C9
:10159000009901F022FF20200A99C87200220A99BE
:1015A000029801F008FF0A9901F11C00002101F0E6
:1015B00014FF01200299C870B9F1000F24D00298DD
:1015C000006B01900022494603A801F089FC054602
:1015D000D5B9DDE9011000F0B9FF0546A9F1010018
:1015E0000299086110E07DB99DF8120000F010002A
:1015F00008B1042508E006F0020028B19DF81200A9
:1016000000F0010000B107255DB906F0080008B13F
:1016100046F040060298006B206200E051E00A9814
:101620006062002D5ED10A99029800F0FDFEA06074
:101630000A9901F11C0000F00AFFE06002982060A6
:101640000298C088A080267400206074E061606108
:101650004FF48052002104F1280000F06EFF06F0E4
:10166000200070B3E06860B3E06860610298408970
:101670000299898900FB01FAA768D4F80C800CE074
:101680003946204600F03EFD0746012F00D80225CE
:10169000781C00B90125A8EB0A080DB9D045EFD890
:1016A000A76175B902988089B8FBF0F100FB118041
:1016B00038B139460298FEF757FFB0F1000B01D15F
:1016C00002250FE002988089B8FBF0F05844E061F1
:1016D000E26902994878012304F12801FFF7A1FA91
:1016E00000B101250DB10020206028460BE72DE94F
:1016F000FF4F85B0044615469A46DDF818B0002025
:10170000CAF8000003A9204603F0A3FD0490049842
:1017100010B9607C049018B1049809B0BDE8F08F4E
:10172000207C00F0010008B90720F6E76169E06855
:10173000401A01900198854200D9019DB9E0606985
:1017400003998989B0FBF1F201FB1200002876D1E0
:10175000606903998989B0FBF1F003994989491EB1
:1017600000EA0109B9F1000F17D1606910B9A0684A
:10177000029004E02046A16900F0C4FC02900298A7
:10178000022802D202206074C7E70298401C10B9F8
:1017900001206074C1E70298A061A1690398FEF777
:1017A000E3FE064616B902206074B6E74E4403987D
:1017B0008089B5FBF0F8B8F1000F2DD009EB0800D7
:1017C00003994989884203D903984089A0EB090805
:1017D00003994878434632465946FFF722FA10B13A
:1017E0000120607499E7207C00F0800078B1E06906
:1017F000801B40450BD2E169891B039B9B8901FB40
:1018000003B003998A8904F1280100F089FE039846
:10181000808900FB08F742E0E069B04220D0207CDC
:1018200000F0800080B1E26903994878012304F157
:101830002801FFF73BFA18B1012060746DE710E052
:10184000207C00F07F002074039948780123324601
:1018500004F12801FFF7E5F910B1012060745CE79D
:10186000E661606903998989B0FBF1F201FB12001E
:10187000039989890F1AAF4200D92F4660690399ED
:101880008989B0FBF1F201FB120104F12800084440
:101890003A4601460090584600F042FE00BFED1B5C
:1018A000DAF800003844CAF80000BB4460693844E4
:1018B0006061002D7FF443AF00202EE731B598B072
:1018C0000025022201A918A800F04EF80446002CB9
:1018D00046D101980D900DA8189900F039FB0446E7
:1018E00000BF002C3CD19DF85F0000F0800008B1E3
:1018F000062405E09DF83A0000F0010000B107243D
:10190000E4B91499019800F08FFD05469DF83A005E
:1019100000F0100090B1019802900495002102A8F7
:10192000FFF7EBF804464CB9002102A8FFF77DF859
:10193000044604B90724042C00D1002484B90DA85E
:10194000FFF7CBF8044634B92DB1002229460DA883
:1019500001F0C6FA04461CB9019801F051FD044695
:10196000204619B030BD00002DE9F74F8AB00021A4
:101970000B9801600A9800F063FC08900898002812
:1019800003DA0B200DB0BDE8F08FC849089851F874
:1019900020400CB90C20F5E70B9804600C9800F07F
:1019A000FE000C90207878B16078FFF75FF98146EF
:1019B00009F0010040B90C9820B109F0040008B109
:1019C0000A20DFE70020DDE7002020700898607023
:1019D0006078FFF7E5F8814609F0010008B10320BF
:1019E000D0E70C9820B109F0040008B10A20C9E73B
:1019F000607804F10C020221FFF7EAF808B1012037
:101A0000C0E7A089B0F5805F07DCA089B0F5007F52
:101A100003DBA089411E084008B10120B2E700277E
:101A200039462046FEF758FD0546022D01D02EDA34
:101A30002DE0002614E04FF4DF7000EB061104F1F6
:101A40003400084409900998007920B109980830B9
:101A500000F0FDFC00E0002002A941F82600761C01
:101A6000042EE8D3002606B1761E00BF02A850F867
:101A7000267027B139462046FEF72EFD00E00320F0
:101A80000546022D03DB701C06460428EED3042D08
:101A900001D1012076E7022D01DB0D2072E704F170
:101AA0003F0000F0E0FCA189884201D00D2069E7E9
:101AB00004F14A0000F0D7FC8046B8F1000F04D1D1
:101AC00004F1580000F0C3FC8046C4F81C80442098
:101AD000005DA070A078012804D0A078022801D071
:101AE0000D204FE7A07808FB00F84120005D6081E1
:101AF000608918B16089411E084008B10D2041E796
:101B000004F1450000F0AFFC2081A089C11700EB73
:101B1000D1614911228992FBF1F301FB132109B133
:101B20000D202FE704F1470000F09DFC8346BBF138
:101B3000000F04D104F1540000F089FC834604F145
:101B4000420000F090FC0190019808B90D2019E7BF
:101B5000A089C11700EBD1614911228992FBF1F2F2
:101B6000019941441144079107998B4501D20D20F9
:101B700008E70798ABEB00006189B0FBF1FABAF116
:101B8000000F01D10D20FDE600254948824500D80F
:101B900003254FF6F570824500D8022540F6F57012
:101BA000824500D801250DB90D20EBE60AF10200AF
:101BB000A061276201983844606207983844E06267
:101BC000032D13D104F15E0000F04DFC08B10D208F
:101BD000D8E6208908B10D20D4E604F1600000F0B9
:101BE00036FCA062A0698000069014E0208908B944
:101BF0000D20C7E6606A4044A062022D02D1A069B0
:101C0000400007E0207E00F00100A16901EB4101E6
:101C100000EB51000690A089401E06990844A18956
:101C2000B0FBF1F0E169884201D90D20AAE64FF03E
:101C3000FF306061206180202071032D2CD104F1E0
:101C4000640000F010FC012826D1791C204600F029
:101C50007DFC08BB0020207104F2322000F003FC60
:101C60004AF65521884217D104F1340000F0EFFB09
:101C70001049884210D104F5067000F0E8FB0E49C7
:101C8000884209D104F5077000F0E1FB606104F5BA
:101C9000087000F0DCFB2061257008480088401CBB
:101CA00080B206490880E08000206BE68043002077
:101CB000F5FFFF0F5252614172724161E202002052
:101CC00010B5044600F0EEF8D32000F009F82046E5
:101CD00000F020F808B100BFFEE700F007F810BDE3
:101CE00001490860704700000C3C0240034800684E
:101CF00040F000400149086070470000103C02407D
:101D000000B5012200BF00F0A3F80246012AFAD074
:101D1000104600BD10B503460024FFF7F1FF04464E
:101D2000FCB91148006820F0F8000F490860084627
:101D3000006843F0020108430B4908600846006848
:101D400040F480300860FFF7DBFF04460648006877
:101D500020F00200044908600846006820F0F800FE
:101D60000860204610BD0000103C024001460020E3
:101D70002C4A914203D2B1F1006F00D350E02A4ABD
:101D8000914204D2274A914201D3082048E0274AD1
:101D9000914204D2244A914201D3102040E0244AC7
:101DA000914204D2214A914201D3182038E0214ABD
:101DB000914204D21E4A914201D3202030E01E4AB3
:101DC000914204D21B4A914201D3282028E01B4AA9
:101DD000914204D2184A914201D3302020E0184A9F
:101DE000914204D2154A914201D3382018E0154A95
:101DF000914204D2124A914201D3402010E0124A8B
:101E0000914204D20F4A914201D3482008E00F4A80
:101E1000914204D20C4A914201D3502000E0582054
:101E200070470000004000080080000800C0000863
:101E30000000010800000208000004080000060875
:101E40000000080800000A0800000C0800000E0846
:101E500000201349096801F48031B1F5803F01D1B8
:101E600001201CE00E49096801F0100109B10520AC
:101E700015E00B49096801F4807109B102200EE0F8
:101E80000749096801F0EF0109B1072007E004499B
:101E9000096801F0020109B1062000E00020704746
:101EA0000C3C02400548006800F0004028B104489E
:101EB00002490C390860034808607047103C024032
:101EC00023016745AB89EFCD30B503460C460025AD
:101ED000FFF716FF0546CDB90D48006820F44070A5
:101EE0000B4908600846006840F400700860084626
:101EF000006840F0010008601C60FFF701FF054624
:101F00000348006820F0010001490860284630BD00
:101F1000103C02402DE9F04105460E461746FFF7FA
:101F2000C1FFD320FFF7DCFE00240BE057F824109C
:101F30002846FFF7C9FF08B92D1D01E000BFFEE7E5
:101F4000601C84B2B442F1DBFFF7D0FEBDE8F08143
:101F50002DE9F3410446276802E00198401C0190F6
:101F6000019800782F28F8D0019800785C28F4D0E8
:101F70000020A06001980078202808D280212B2022
:101F8000015500212046FEF7B8FD054631E000BFAF
:101F900001A92046FEF786FB054605B128E020464C
:101FA000FEF7A0FC05462B20065D3DB1042D04D1B3
:101FB00000BF06F0040000B9052519E006F0040092
:101FC00000B115E0A07900F0100008B905250FE078
:101FD000B9892069B0FBF1F201FB120107F134006D
:101FE00001EB00084146384600F01EFAA060CFE73A
:101FF00000BF2846BDE8FC8170B504460D46174970
:1020000031F8140000F04EFF41F20E1000F04AFFCC
:10201000134951F82430134951F824000022114685
:1020200000F070F9012D17D10F49085D002202213F
:1020300000F05CFB0D4A115D0D4A105D01F04EFA97
:102040000C4951F8240001220021FEF757FE0949EE
:1020500051F82400FEF7AEFE70BD000074020020AF
:10206000680200205C0200208E0200208B0200200B
:10207000880200207C02002010B50446044A52F871
:102080002410044A52F8240000F034F910BD000076
:10209000680200205C02002010B50446104931F8A7
:1020A000140000F0FFFE0F4951F824300E4951F89A
:1020B00024000022012100F025F90A4951F82430BA
:1020C000094951F824000222002100F042F9054894
:1020D00050F82400044951F82410886210BD000013
:1020E000540200203C02002030020020034951F835
:1020F0002010034A52F82020D16270473C02002091
:10210000300200202DE9F05F81460D46D9F80040ED
:10211000022D02D3A069A84202D84FF0010887E03F
:102120004FF0FF382078012804D002283AD0032845
:102130007AD156E02E4606EB5606A089B6FBF0F0A3
:10214000616A00EB010A5146204600F0FFF900B138
:102150006DE03046761CA189B0FBF1F201FB120163
:1021600004F13400475CA089B6FBF0F0616A00EB33
:10217000010A5146204600F0E9F900B157E0A08974
:10218000B6FBF0F100FB116104F13400405C47EA5A
:10219000002705F0010008B1380901E0C7F30B0082
:1021A000804644E0B4F80CA00AEBDA704010B5FBAE
:1021B000F0F0616A00EB010B5946204600F0C6F9C9
:1021C00000B134E06800A189B0FBF1F201FB12011B
:1021D00004F1340001EB000A504600F044F9804657
:1021E00025E0B4F80CA04FEAEA700AEB907080107A
:1021F000B5FBF0F0616A00EB010B5946204600F098
:10220000A5F900B113E0A800A189B0FBF1F201FB30
:10221000120104F1340001EB000A504600F017F9F6
:1022200020F0704803E0FFE74FF0010800BF00BF57
:102230004046BDE8F09F0000004870470000214E76
:1022400070B504464FF0FF3026683146324601B97A
:1022500070BD00BF12F8013B212B01D33A2BF9D1FD
:102260003A2B11D104250E78302E08DB0E78392E4A
:1022700005DC8E1C964202D10E78A6F13005042DA5
:1022800001DA28462260E3E7002000BFE0E7F0B56E
:1022900003461C6A5D6A00200DE001268640164058
:1022A0003EB187000F26BE40B443860001FA06F611
:1022B0003443461CB0B20828EFD3082011E00126B1
:1022C000864016405EB1A0F10806B7000F26BE405A
:1022D000B543A0F10806B60001FA06F63543461CE0
:1022E000B0B21028EBD31C625D62F0BD8162704712
:1022F0008161704702461069084008B101207047AB
:102300000020FCE7F0B504460D4616462168E26859
:10231000002019E0012787401F409FB14FEA400C81
:10232000032707FA0CF7B943470005FA07F73943C3
:102330004FEA400C032707FA0CF7BA43470006FAA6
:1023400007F73A43471CB8B21028E3D32160E26094
:10235000F0BDF0B50C461546012C03D146681E436E
:10236000466002E046689E434660826800210DE0B8
:1023700001268E401E403EB14F000326BE40B243B0
:102380004E0005FA06F632434E1CB1B21029EFD3C7
:102390008260F0BD70B505460C46074805602046D2
:1023A00000F00EF800BF044800680028FBD1034885
:1023B00001F0B1F970BD00000000002000040040F1
:1023C0001FB50446164801F0A6F90121144801F092
:1023D000F9F9022C02D10620029004E0012C02D16E
:1023E00041F6573002900F48006880B2ADF8000007
:1023F0000020ADF80600ADF804006946084801F079
:1024000095F90121064801F0E5F9054801F07EF94A
:102410000121034801F0DAF9014801F081F91FBDFB
:10242000000400400400002070B505460C4604F18D
:102430001A0000F018F806462878032805D104F1A0
:10244000140000F010F846EA0046304670BD014620
:10245000C8788A7842EA00204A7842EA00200A785E
:1024600042EA00207047014648780A7842EA002094
:102470007047000000210220FFF7BEFD0220FFF799
:10248000FBFDD8B10020FFF707FE01F0B3F91648B5
:10249000006816490840B0F1005F0FD1124840684B
:1024A0001349086008460068124908600E49086828
:1024B00080F3088800BF0F480068804701F0E2F809
:1024C00001F060FC01F024FA01F0DAFC01210A4875
:1024D00002F092F901F076FC00BF0748407B032828
:1024E000FBD100BFFEE70000000002080000FE2F45
:1024F0002C010020300100200C000020F0B5034624
:102500001D460C46002000BF15F8017B14F801CBD6
:10251000A7EB0C00561E321E01D00028F4D0F0BDEF
:1025200030B503460C463AB100BF14F8015B03F81E
:10253000015B551E2A1EF8D130BD10B5034600BF01
:1025400003F8011B541E221EFAD110BD70B50446BB
:102550000D460026206BA84210D0204600F098FFC0
:1025600006465EB9607801232A4604F13401FEF77D
:1025700058FB10B14FF0FF3501262563304670BD82
:1025800070B506460C461546012C09D1012D07D120
:102590000F48007810B1304600F040F9002070BDBF
:1025A0009CB9012D11D10A48007828B900F0E6FC49
:1025B000304600F033F906E005480078022802D1E1
:1025C000304600F02BF90020E9E70220E7E70000A1
:1025D0008601002070B504460D468121204601F099
:1025E00021FE0121204601F01DFE00200449087053
:1025F0001F23044A0121204601F0C6FE002070BDC1
:10260000860100205043002070B504460D460B495A
:10261000204601F03BFE0949C91D204601F036FE67
:10262000FDF724FE0020064908701F23054A0121FA
:10263000204601F0A9FE002070BD0000B252000843
:10264000860100205043002070B505460C462078D6
:1026500000F0600020B320283CD16078FE2802D032
:10266000FF2815D10AE000201C4908701C49087099
:1026700001221A49284601F0EEFC0FE0002018491B
:1026800008701F23174A0121284601F07DFE05E04E
:102690002146284601F068FD022070BD00BF1AE007
:1026A000607801280ED00A2802D00B280FD105E04F
:1026B00001220D49284601F0CEFC09E0A0780A4924
:1026C000087005E08121284601F0EAFE00E000BF25
:1026D00000BF00BF00BF00BF0020DEE718020020DF
:1026E0008601002050430020190200202DE9F0410E
:1026F00003460D46164600240027A0462A480068D7
:1027000000F4E060B0F5E06F03D100BF4FF00408C3
:1027100030E02548006800F4E060B0F5C06F03D1F8
:1027200001274FF0030825E01F48006800F4E0602F
:10273000B0F5A06F02D10227B8461BE01A48006826
:1027400000F4E060B0F5806F03D103274FF001087B
:1027500010E01548006800F4E060B0F5407F03D158
:1027600004274FF0000805E04FF4A06000F020F8C7
:102770000227B846C7F1040005FA00F4C8F10401C5
:102780000F20C8403040044324010848C45403F0DB
:102790001F01012088405911890001F1E021C1F891
:1027A0000001BDE8F08100000CED00E000E400E075
:1027B00002490143024A1160704700000000FA0517
:1027C0000CED00E0024A0A400243024B1A607047D7
:1027D00080FFFF1F08ED00E00E4A126822F003029E
:1027E0000C4B1A601A46126802431A600A4A1268B1
:1027F00042F00402084B1A6009B930BF02E040BF42
:1028000020BF20BF044A126822F00402024B1A6063
:10281000704700000070004010ED00E02DE9F0412D
:102820000746FB4800781E287DD00CDC122813D008
:1028300004DC002878D0032877D177E11A2875D0F6
:102840001B28F9D195E123280CD0252810D0282861
:1028500014D02A28F0D1CAE02422EE493846FDF7E8
:10286000CFFD25E20C22EC493846FDF7C9FD1FE2F9
:102870000822EA493846FDF7C3FD19E2E848007826
:10288000002854D10120E6490870E148807800060C
:10289000DF49C97840EA0140DD49097940EA012071
:1028A000DB4949790843DF490860D948007AD849AB
:1028B000C97940EA0120DC490860DA480068000371
:1028C000D8490860D84800680003D749086008461E
:1028D0000068B0F5805F02D20846006801E04FF45E
:1028E0008050D249086008460068030B4FF48052BC
:1028F000CC480168CE48FDF7E7FCCC48CC4A8121A2
:102900000368384601F0FEFDC6480068C7490968FB
:102910000844C4490860C4480068C4490968401AAA
:10292000C149086062E025E106E146E13FE1BC48BB
:10293000007801284DD1BC480068F0B90320B8499F
:102940000870BC484568B248007AB149C97940EA84
:102950000120B8498968A1EB003600240020B34962
:102960000860224631462846FDF7A8FD0D23B24AED
:102970008121384601F0C6FD38E0AB480068B0F56B
:10298000805F02D2A848006801E04FF48050A74958
:10299000086008460068030B4FF48052A1480168A4
:1029A000A348FDF791FCA148A14A8121036838465C
:1029B00001F0A8FD9B4800689C49096808449949B2
:1029C00008609948006899490968401A9649086062
:1029D0000CE093480078032808D100209049087043
:1029E0001F23944A0121384601F0CEFC60E18C4857
:1029F0000078C8BB02208A490870854880780006A4
:102A00008349C97840EA01408149097940EA0120B7
:102A10007F4949790843834908607D48007A7C49A9
:102A2000C97940EA0120804908607E4800680003B7
:102A30007C4908607C48006800037B4908600846C0
:102A40000068B0F5805F02D20846006801E04FF4EC
:102A50008050764908600846008883B2744A012194
:102A6000384601F091FC60E0FFE76D4800780228ED
:102A70004ED16E480068030B4FF4805269480168DC
:102A80006B48FDF731FC67480068684909680844ED
:102A9000644908606448006864490968401A6249EA
:102AA000086008460068F0B903205D490870614875
:102AB00045685748007A5649C97940EA01205D497E
:102AC0008968A1EB0036002400205849086022469E
:102AD00031462846FDF7F2FC0D23574A812138463E
:102AE00001F010FD21E050480068B0F5805F02D28F
:102AF0004D48006801E04FF480504C49086008469A
:102B0000008883B24A4A0121384601F03DFC0CE0BE
:102B100043480078032808D10020414908701F234A
:102B2000444A0121384601F02FFCC1E012224349FA
:102B30003846FDF765FCBBE03948007878B90320DA
:102B4000374908703B49002248681146FDF7B6FC3A
:102B50000D23394A8121384601F0D4FC08E00020D9
:102B60002F4908701F23334A0121384601F00CFC1D
:102B70009EE000BF2A48007878B9032028490870F1
:102B80002C49002248681146FDF798FC0D232A4A7B
:102B90008121384601F0B6FC08E000202049087089
:102BA0001F23244A0121384601F0EEFB80E0082271
:102BB00023493846FDF724FC7AE01E48007B00F0EC
:102BC000800020B31648007858B9012014490870D5
:102BD0001C49086001231C4A8121384601F092FCFF
:102BE00065E00F480078012830D103200C490870B7
:102BF000104A9268511E0F4A50680122FDF75EFC90
:102C00000D230D4A8121384601F07CFC4FE02BE07A
:102C100040330020340100205801002064010020CE
:102C200086010020940100209001002098010020DE
:102C30005033002050430020704300206C010020DE
:102C40007E0100208C010020870100201A480078B6
:102C500003282CD10020184908701F23174A01218E
:102C6000384601F091FB22E01348007890B900202B
:102C700013490860114A916850680122FDF71EFC53
:102C80000D23104A8121384601F03CFC03200A49FB
:102C900008700CE008480078032808D10020064995
:102CA00008701F23054A0121384601F06DFB00BF63
:102CB00000BFBDE8F08100008601002050430020E5
:102CC0008C010020704300202DE9F05F04460D4682
:102CD00016464FF00209022D72D3A069A8426FD99F
:102CE0002078012804D0022857D0032811D179E098
:102CF0002F4607EB5707A089B7FBF0F0616A00EB9E
:102D0000010A51462046FFF721FC8146B9F1000F28
:102D100000D09DE038467F1CA189B0FBF1F201FB99
:102D2000120104F1340001EB000805F0010028B1A4
:102D3000F1B298F8000061F31F1000E0304688F807
:102D400000000120E070A089B7FBF0F0616A00EBA1
:102D5000010A51462046FFF7F9FB8146B9F1000F01
:102D600000D075E0A089B7FBF0F100FB117104F110
:102D7000340001EB000805F0010010B1C6F30710A4
:102D800006E098F8000000F0F000C6F303210843C5
:102D900088F800000120E0705AE0B4F80CA00AEBBB
:102DA000DA704010B5FBF0F0616A00EB010B594698
:102DB0002046FFF7CBFB8146B9F1000F01D047E079
:102DC00047E06800A189B0FBF1F201FB120104F1B8
:102DD000340001EB000AB1B2504600F00AFB0120BA
:102DE000E07035E0B4F80CA04FEAEA700AEB90709E
:102DF0008010B5FBF0F0616A00EB010B59462046EC
:102E0000FFF7A4FB8146B9F1000F00D020E0A80035
:102E1000A189B0FBF1F201FB120104F1340001EBD6
:102E2000000A5046FFF713FB66F31B000646A80096
:102E3000A189B0FBF1F201FB120104F1340001EBB6
:102E4000000A3146504600F0C8FA0120E07000BF89
:102E500000BF4846BDE8F09FD0F8801041F0040163
:102E6000C0F8801070470000044A116821F0010189
:102E700041EA0002014B1A6070470000C03802406E
:102E8000074A02EB9011D1F8001800F01F0301224D
:102E90009A409143024B03EB9012C2F8001870471E
:102EA00000300240074A02EB9011D1F8001800F000
:102EB0001F0301229A401143024B03EB9012C2F808
:102EC0000018704700300240044A116821F00201E6
:102ED00041EA0002014B1A6070470000C03802400E
:102EE0002DE9F04781460E4617464FF00008D9F805
:102EF0000040022E02D3A069B04202D80220BDE8F1
:102F0000F08767B100BF4FF0FF3239462046FFF728
:102F1000DBFE8046B8F1000F01D04046EFE700BF6E
:102F200031464846FFF7EEF8054605B922E0012D87
:102F300001D10220E3E7681C08B90120DFE7002285
:102F400031462046FFF7C0FE8046B8F1000F01D0A1
:102F50004046D4E7D4E90510801E814206D260695C
:102F6000401C6061207940F0010020712E46A0696C
:102F7000B042D5D800BF0020C1E70000002005E026
:102F80000449095C044A1154411CC8B21028F7DBFB
:102F9000704700005F43002040330020026842F485
:102FA0000052026001617047016841F04001016018
:102FB0007047000070B505460C4616464FF4807108
:102FC0001048FFF793F9032000F084F9C4F3074099
:102FD00000F080F9C4F3072000F07CF9E0B200F0C3
:102FE00079F904E0A52000F075F928706D1C301EF9
:102FF000A6F101018EB2F5D14FF480710148FFF7BF
:1030000077F970BD002002402DE9F05F07460E46BB
:1030100014464FF00008C146C2460025AB4606F0F4
:10302000FF0ACAF10000C5B22046E11704EB1161A6
:10303000C1F30728E11704EB11610912A4EB012188
:1030400001F0FF09BAF1000F20D1B8F1000F05D14E
:1030500022463146384600F0C3F864E009E04FF4F8
:1030600080723146384600F0BBF806F5807607F5E9
:103070008077B8F10000A8F1010101F0FF08EED15E
:103080004A463146384600F0ABF84CE0B8F1000F44
:1030900018D1A94510DDA9EB050000F0FF0B2A4669
:1030A0003146384600F09CF82E442F445A463146AB
:1030B000384600F095F836E022463146384600F0B2
:1030C0008FF830E0601B84B22046E11704EB1161F9
:1030D000C1F30728E11704EB11610912A4EB0121E8
:1030E00001F0FF092A463146384600F079F82E44AF
:1030F0002F4409E04FF480723146384600F070F8F2
:1031000006F5807607F58077B8F10000A8F1010197
:1031100001F0FF08EED1B9F1000F04D04A46314664
:10312000384600F05DF8BDE8F09F000000B587B0BC
:1031300040F60640FFF7B6FE40F60840FFF7B2FE45
:1031400041F21510FFF7AEFE4FF4F8420521214879
:10315000FFF79DF84FF4F843002202211D48FFF7C6
:10316000D1F84FF4F843012200211A48FFF7F1F893
:103170004FF48073002201211748FFF7C3F84FF482
:103180008073022200211448FFF7E3F84FF48071A6
:103190001148FFF7ADF8002001904FF482700090C5
:1031A0000020029005904FF40070039020200690BC
:1031B000002004906946094800F0E4F80721074818
:1031C000FFF7ECFE0548FFF747FE0448FFF7ECFE6B
:1031D00007B000BD0018024000200240005401402A
:1031E00070B505460C46164600F0ACF84FF48071F9
:1031F0001148FFF77BF8022000F06CF8C4F3074099
:1032000000F068F8C4F3072000F064F8E0B200F0C2
:1032100061F803E0287800F05DF86D1C301EA6F11F
:1032200001018EB2F6D14FF480710348FFF760F8C8
:1032300000F06CF870BD0000002002402DE9F04164
:1032400000240025002600274FF480710F48FFF767
:103250004DF89F2000F03EF8A52000F03BF8054611
:10326000A52000F037F80646A52000F033F8074601
:103270004FF480710548FFF73BF8280440EA062028
:1032800040EA07042046BDE8F0810000002002402B
:1032900010B5044600F056F84FF480710C48FFF763
:1032A00025F8202000F016F8C4F3074000F012F8CB
:1032B000C4F3072000F00EF8E0B200F00BF84FF472
:1032C00080710348FFF714F800F020F810BD0000EB
:1032D0000020024010B5044600BF02210A4800F059
:1032E00049F80028F9D02146074800F041F800BF0E
:1032F0000121054800F03EF80028F9D0024800F00E
:1033000033F8C0B210BD00000054014010B50024D5
:103310004FF480710A48FEF7E9FF0520FFF7DAFF56
:1033200000BFA520FFF7D6FF044604F001000028E7
:10333000F7D14FF480710248FEF7DAFF10BD0000AC
:103340000020024010B54FF480710648FEF7CEFF12
:103350000620FFF7BFFF4FF480710248FEF7C8FF59
:1033600010BD0000002002400146C86880B27047CE
:10337000C160704702469068084008B1012070475C
:103380000020FCE702460020106800F441500B6862
:1033900018434B6818438B681843CB6818430B6974
:1033A00018434B6918438B6918431060D36923F4A1
:1033B0000063D361704770B506460C461546A9B246
:1033C00004F11A0000F015F83078032804D1290C14
:1033D00004F1140000F00DF870BD00F8011B090A9B
:1033E00000F8011B090A00F8011B090A00F8011B7B
:1033F000704700F8011B091200F8011B704700001C
:1034000070B50446204600F043F80546002D38D13B
:10341000207803282ED1207901282BD10203002106
:1034200004F13400FFF789F84AF6552104F23220FE
:10343000FFF7DFFF144904F13400FFF7CEFF134913
:1034400004F50670FFF7C9FF04F507706169FFF71F
:10345000C4FF04F508702169FFF7BFFF206A401C14
:1034600020636078012304F13401226BFDF71EFC18
:1034700000202071607800221146FDF7A9FB00B101
:103480000125284670BD00005252614172724161AF
:1034900070B504460025E078E8B16078012304F1B6
:1034A0003401226BFDF702FCA0B90020E070616AD4
:1034B000206B401AE16988420DD2A07802280AD117
:1034C000E369216BCA186078012304F13401FDF728
:1034D000EDFB00E00125284670BD000070B50446F4
:1034E0000B46CD1701EB9575AD10A1EB8505AE0030
:1034F0000F25B540E843CD1701EB9575AD10A1EB55
:103500008505AD0004FA05F2CD1701EB9575AD10F8
:1035100035B1012D0ED0022D18D0032D2ED121E072
:10352000184B1B680340174D2B602B461B68134339
:103530002B6024E0134B1B1D1B680340114D2D1DF8
:103540002B602B461B6813432B6018E00D4B083390
:103550001B6803400B4D08352B602B461B6813433B
:103560002B600CE0074B0C331B680340054D0C35FA
:103570002B602B461B6813432B6000E000BF00BF8D
:1035800070BD000008380140002000213A4A12684E
:1035900042F48032384B1A6000BF401C364A126831
:1035A00002F4003111B9B0F5006FF6D1324A126859
:1035B00002F400320AB900BFFEE72F4A4032126817
:1035C00042F080522C4B40331A602C4A126842F46D
:1035D00040422A4B1A60284A08321268264B0833A8
:1035E0001A601A46126842F400421A601A461268BB
:1035F00042F4A0521A60224A1B1F1A601A1F126856
:1036000042F080721B1F1A6000BF1B4A126802F052
:103610000072002AF9D0194A126842F48032174B1E
:103620001A6000BF154A526802F48032002AF9D0AD
:10363000124A126842F40032104B1A6000BF0F4A5F
:10364000526802F40032002AF9D00B4A083212689C
:1036500022F00302084B08331A601A46126842F03F
:1036600002021A6000BF044A0832126802F008021F
:10367000002AF8D070470000003802400070004077
:103680001954400710B51D48006820F003001B497D
:1036900008600846006840F00100086000BF174855
:1036A000006800F004000028F9D01820FFF7E8FBBC
:1036B00013481249091F0860081F006840F0807015
:1036C000091F086000BF0D480838006800F000704E
:1036D0000028F8D00948006820F003000749086076
:1036E0000846006840F00200086000BF0348006818
:1036F00000F008000028F9D010BD00000838024092
:103700001960400810B5FFF73FFF10BD016841F098
:10371000800101607047016821F00101016070477C
:10372000016841F001010160704700000A8882626F
:103730001D4A90420ED0B0F1804F0BD01B4A9042F0
:1037400008D01B4A904205D01A4A904202D01A4A29
:1037500090420BD1026822F07002026002684B882E
:103760001A43026002688B881A4302608A68C26248
:10377000124A90420AD0124A904207D0026822F4BC
:10378000407202600268CB881A430260064A904287
:1037900002D0094A904201D10A7B0263426942F099
:1037A0000102426170470000000001400004004037
:1037B00000080040000C00400004014000100040E0
:1037C00000140040C2688A43C2607047C2680A435E
:1037D000C260704702698A43026170470246D0683E
:1037E00000EA01031069084010B10BB101207047D5
:1037F0000020FCE72DE9F843DFF8E89001223AA128
:103800003A48FDF74FFE012239A13D48FDF774FE0D
:103810003C4908700846007800285ED13848C668E0
:10382000FEF740FB4846FEF7A1FA074649467018E6
:10383000FEF79CFA0546B84604E04046FEF740FA1B
:1038400008F10808A845F8D94FF0000817E06B46C2
:103850004FF480522C492A48FDF749FF2949087046
:103860000846007800B10CE0274A0098C0F38F01A9
:103870004846FEF74FFB0098814400988044B045CD
:10388000E5D300BF1F480078B8B9012418A0FEF79F
:1038900015F84FF000080CE00020FEF727FC002090
:1038A00000E0401C19498842FBD308F1010000F0F8
:1038B000FF08B8F1060FEFDB0CE002240CA0FDF7C7
:1038C000FDFFB84604E04046FEF7FAF908F10808A3
:1038D000A845F8D9FEF70AFA00E000242046BDE822
:1038E000F883000000000208323A0000E4020020E1
:1038F000323A7570646174652E62696E0000000072
:103900001813002008000020402300208096980013
:1039100010B50020FFF7D8FA0020FFF7A5FA40F60F
:103920000750FFF7BFFA10BD08B5C17999B10A4930
:10393000096801F0010169B108490968009100991D
:1039400021F002010091009921F001010091034A48
:103950000099116000BF08BD08080050000E00501B
:103960004FF0FF314FF0A042516001499161704723
:103970000008008010B50446A078012824D14FF03B
:10398000A040806B20F480304FF0A0418863A07984
:1039900020B10846806B40F4801088634FF0A0404F
:1039A000C06820F040004FF0A041C8600846C068E1
:1039B00020F40010C8600846C06820F48010C86079
:1039C000204600F039F82FE0A07802282CD120788A
:1039D00038B94FF0A040C06840F040004FF0A0411F
:1039E000C860204600F028F84FF0A040806B40F4FB
:1039F00050204FF0A04188630846806820F0800086
:103A000088600846806B40F400108863A07920B17C
:103A10000846806B40F480108863D4F81C0118B10C
:103A20001420D4F81C1188476079012802D12A207B
:103A3000C1068860002010BD70B5044600254FF017
:103A4000A040006940F001004FF0A041086100BFB4
:103A5000681C05460A49884200D906E04FF0A0409C
:103A6000006900F001000028F2D100BFD4F818016D
:103A700018B10320D4F818118847002070BD000049
:103A8000400D0300024601205070402010810020AC
:103A9000507101290BD1012010700820D070042032
:103AA00010714FF4A07050810220907009E041B96C
:103AB000002010700C20D070062010714FF4A06010
:103AC00050810020704700007CB5054600264FF06D
:103AD000A040806A0190002000906C4908606C480A
:103AE000006820F4C0506A49086008460068086011
:103AF000287801284BD10846006820F003000860B0
:103B00000846006840F0030008604FF0A040406A9B
:103B10006FF30F004FF0A04148620846406A40F042
:103B200080004862019880B20190019840F48000C2
:103B3000019001986FF30F000190019840F0800010
:103B4000019001988862802601241EE0601E514980
:103B500031F810000644009880B20090084630F812
:103B60001400009941EA0040009000986FF30F00A4
:103B70000090009830430090601E800000F5827035
:103B800000F1A04000990160641C042CDED31021D8
:103B9000284600F0A5F9284600F050F900203C49DD
:103BA00010310860091D0860401E091D08600020D2
:103BB000091D0860002458E0600100F5106000F164
:103BC000A040006800F0004070B1600100F5106096
:103BD00000F1A040006840F09041600100F51060E5
:103BE00000F1A040016006E00021600100F51060D6
:103BF00000F1A0400160600100F5306000F1A040DC
:103C0000006800F0004070B1600100F5306000F124
:103C1000A040006840F09041600100F5306000F184
:103C2000A040016006E00021600100F5306000F175
:103C3000A04001600021600100F5116000F1A0408A
:103C40000160600100F5316000F1A0400160FF21DA
:103C5000600100F6081000F1A0400160600100F66C
:103C6000083000F1A0400160641C2879A042A3D86C
:103C700007481030006840F0100005491031086016
:103C8000284600F009F800207CBD0000000E00501E
:103C9000000800509202002070B505460024002064
:103CA0004FF0A04188616FF0804048612846FFF7DF
:103CB00057FE687900B91024074804434FF0A0402C
:103CC0008069A0434FF0A041886108468069204385
:103CD0008861002070BD000008383C0008B5002154
:103CE0000091009921F07F010091009941F01801A5
:103CF0000091009921F400210091009941F40021E4
:103D00000091009921F0C0410091009941F0C0411B
:103D10000091084A009911604179012908D100F108
:103D20002401121D11604FF08021024A103A1160E7
:103D300008BD0000100B005030B50022CD1CAB08B0
:103D4000044C00BF03E025680560001D521C9A4228
:103D5000F9D330BD00100050F0B503460025002413
:103D6000481C4FF0A04707EB0036D01C850800BF69
:103D700003E0186830601B1D641CAC42F9D30020BE
:103D8000F0BD000010B541F20E10FFF78BF84FF4B4
:103D90004060FFF787F84FF4C05300220221084823
:103DA000FEF7B0FA4FF4C053032200210448FEF797
:103DB000D0FA4FF4C0520A210148FEF768FA10BD4C
:103DC0000000024010B54FF4A060FEF7F1FC0022A5
:103DD00002214320FEF78AFC10BD10B504460121E4
:103DE0002046FEF7D7FA10BD70B504460D46012DEA
:103DF0000DD14FF0A040C06820F080404FF0A041AE
:103E0000C8600846C06840F00050C8600DE065B961
:103E10004FF0A040C06820F000504FF0A041C860B3
:103E20000846C06840F08040C860D4F81C0118B152
:103E30003220D4F81C118847002070BD70B50446AC
:103E4000002510204FF0A041086100BF681C054606
:103E50000A49884200D906E04FF0A040006900F00E
:103E600010000028F2D100BFD4F8180118B10320C7
:103E7000D4F818118847002070BD0000400D0300E1
:103E800010B500214FF00060FEF79CFC4FF4A060DD
:103E9000FEF78EFC002201211D20FEF727FC41F2D7
:103EA0000100FEF7FFFF10BD10B501210A48FFF722
:103EB00095FC78B101210848FFF78CFC07480068A1
:103EC00028B106480068401E0449086002E0024824
:103ED000FFF721FC10BD000000040040000000209E
:103EE00070B504460D460026202040EA85104FF0AC
:103EF000A041086100BF701C06460A49884200D9EB
:103F000006E04FF0A040006900F020000028F2D148
:103F100000BFD4F8180118B10320D4F8181188474D
:103F2000002070BD400D030010B50446022120465C
:103F3000FEF730FA10BD70B504460D46002628780D
:103F400000F0030020B101281ED0022856D131E034
:103F5000607B022802D003280FD100E000BF6888F0
:103F6000012809D10021616129462046D4F8102199
:103F70009047204600F060F804E02946204600F013
:103F8000F3F800BF00BF3EE0607B022802D00328A8
:103F90000DD104E02946204600F0E6F808E0287933
:103FA000012803DD2946204600F0DEF800E000BFCE
:103FB00000BF28E02E79607B022802D003281AD1A6
:103FC00007E02EB1802E03D03146204600F068FA7B
:103FD00012E0688858B956B1802E08D03146204684
:103FE00000F0D1F829462046D4F810219047204609
:103FF00000F022F800E000BF00BF04E029462046A0
:1040000000F0B2F800BF00BF70BD0346D3F8000156
:1040100080781080D3F80001704710B50446052160
:10402000A17300231A461946204600F0ADF9204638
:10403000FFF754FE002010BD10B504460421A17303
:1040400000231A461946204600F05CFA2046FFF786
:1040500045FE002010BD2DE9F04104460E461546F0
:104060000027E561A5610221A1732B46324600219C
:10407000204600F047FA3846BDE8F08170B50446A6
:104080000D460026607B032814D1287901280CDC1A
:1040900029462046D4F8102190470646E88840B9C2
:1040A0003EB92046FFF7C8FF03E02946204600F04E
:1040B0005BF804E02946204600F056F800BF00BF38
:1040C000304670BD0346D3F8FC0000781080D3F86A
:1040D000FC0070472DE9F04107460E460025A84632
:1040E00006EB460107F13C0000EBC104D4E90301F3
:1040F000451A6068A84200D26568E81C4FEA90083B
:104100001FE0D4E90301451A6068A84200D265683F
:10411000E81C4FEA9008AAB23146A068FFF71CFEDF
:10412000A0682844A060206928442061D4E90310D5
:10413000884206D30B4800680121B14088430949F1
:104140000860700100F6181000F1A040006880B20D
:10415000404503D9D4E903108842D2D30120BDE8F9
:10416000F08100003408005070B504460D468021EF
:10417000204600F095F90021204600F091F92046F4
:10418000FFF7ACFD70BD38B502460B4603F07F016A
:1041900000240094DC1114B301EB410502F13C044E
:1041A00004EBC5004C0104F5106404F1A04424683C
:1041B0000094009C24F4001400940478032C02D092
:1041C0000478022C03D1009C44F0805400944C01EC
:1041D00004F5106404F1A044009D256021E001EB8A
:1041E000410502F19C0404EBC5004C0104F5306468
:1041F00004F1A04424680094009C24F4001400946A
:104200000478032C02D00478022C03D1009C44F0E3
:10421000805400944C0104F5306404F1A044009DE6
:10422000256038BD30B50446002201F07F00CB1177
:104230008BB1012383401A43430103F5106303F15B
:10424000A0431B6823F40045430103F5106303F109
:10425000A0431D6011E00123834042EA0342430171
:1042600003F5306303F1A0431B6823F400454301C9
:1042700003F5306303F1A0431D60034B1B689343B8
:10428000014D2B6030BD00001C0800502DE9F043AB
:1042900005460A460026002092F8028008F07F01B9
:1042A00092F8038008F00307B2F804C092F8028085
:1042B0004FEAE818B8F1000F15D001EB410905F1FC
:1042C0003C0808EBC9044FF0010808FA01F848EA75
:1042D00006064FEA411808F5106808F1A048D8F81A
:1042E0000000012314E001EB410905F19C0808EBF3
:1042F000C9044FF0010808FA01F846EA08464FEAF7
:10430000411808F5306808F1A048D8F800000023EB
:1043100000F40048B8F1000F11D16FF30A0040EA31
:104320000C0020F4402040EA8740012B03D120F00C
:10433000707040EA815040F0805040F40040012B02
:1043400008D14FEA411808F5106808F1A048C8F8EC
:10435000000008E03BB94FEA411808F5306808F161
:10436000A048C8F80000C4F804C02770DFF8148023
:10437000D8F8008048EA0608DFF80890C9F80080FD
:10438000BDE8F0831C0800502DE9F04104460E46BC
:1043900015461F4606F07F020023002102EB42086B
:1043A00004F19C0C0CEBC8008560C7608C46C0F81B
:1043B00010C094F805C0BCF1010F00D145614FEA6F
:1043C000421C0CF5306C0CF1A04CDCF800304FEACC
:1043D000421C0CF5316C0CF1A04CDCF800106FF3B2
:1043E0001201DFF8B8C001EA0C01D0F80CC0BCF132
:1043F000000F06D1D0F804C04CEA010141F40021BD
:104400001AE032B9D0F804C04CEA010141F40021AD
:1044100012E0D0F80CC0D0F80480C444ACF1010C18
:10442000BCFBF8FC41EACC41C1F3C948D0F804C058
:104430000CFB08FC4CEA01014FEA421C0CF5316C04
:104440000CF1A04CCCF8001094F805C0BCF1010FA1
:1044500009D14FEA421C0CF6143C0CF1A04CD0F8E8
:104460001480CCF8008090F800C0BCF1010F09D195
:1044700090F801C0BCF1000F02D043F0005301E0FE
:1044800043F0805343F004434FEA421C0CF5306C78
:104490000CF1A04CCCF80030BDE8F081FFFF07E044
:1044A00018B5034601F07F0000220092CA11D2B174
:1044B000420102F5106202F1A04212680092009AD5
:1044C00002F000421AB1009A42F080420092009A33
:1044D00042F400120092420102F5106202F1A04281
:1044E000009C14600DE0420102F5306202F1A0422E
:1044F000126842F40014420102F5306202F1A04257
:10450000146018BD2DE9FC470646884617469946B3
:1045100008F07F0500200190009005EB450106F1B1
:104520003C0000EBC104A760C4F80C90002020619F
:104530007079012800D16761680100F5106000F111
:10454000A04000680190680100F5116000F1A040F2
:104550000068009000986FF31200009038490098AE
:1045600008400090E06820B9009840F400200090D6
:1045700020E055B96168E068884201D96068E06070
:10458000009840F40020009009E0E068401E616857
:104590000844B0FBF1F0009941EAC0400090E068A7
:1045A0000099084300902078012803D1009840F03A
:1045B00000500090680100F5116000F1A0400099E2
:1045C0000160207801280DD11E480068C0F300204A
:1045D00020B9019840F00050019003E0019840F0AC
:1045E000805001907079012806D1680100F61410FE
:1045F00000F1A04061690160019840F00440019021
:10460000680100F5106000F1A04001990160707927
:10461000A0B9207801280BD0E06878B109482C3087
:1046200000680121A940084306492C31086005E0D3
:10463000A1898AB22946A068FFF78EFBBDE8FC87F6
:10464000FFFF07E00808005038B504460D4600207B
:104650000090E888012804D029462046FFF784FD11
:1046600018E0607B022802D003280DD105E001226A
:1046700069462046FFF7EFFC0BE0012204F10C0134
:104680002046FFF7E8FC04E029462046FFF76CFDD2
:1046900000BF00BF38BD00002DE9F84306460C46B8
:1046A000207800F0030088BB60880512A778032DEE
:1046B00027D8052F25D8681E1B4951F820306A4697
:1046C0003946304698478046BDF80000C0B1E088C2
:1046D000B0B1E088BDF80010884202DDBDF80000EE
:1046E00000E0E0880090012D04D1E088402801D14D
:1046F00008200090BDF8002041463046FFF7ABFC93
:1047000003E021463046FFF72FFD0AE0FFE720785F
:1047100000F00300012804D121463046D6F81021CC
:104720009047BDE8F8830000D402002070B504462D
:104730000D4629462046D4F81021904770BD704799
:1047400070B504460E46002E4BD104F13C05A07B0B
:1047500002284FD1A0696968884217D9A0696968A1
:10476000411AA1616079012803D1D5E901100844FB
:10477000A860A36900212046AA68FFF7C3FE0023B2
:104780001A4619462046FFF7FFFD33E0E0696968E5
:10479000B0FBF1F201FB1200B0B9E0696968884230
:1047A00012D3D4E9071081420ED200231A461946CB
:1047B0002046FFF7A7FE0021216200231A46194672
:1047C0002046FFF7E1FD15E0607B032805D10022BC
:1047D00001212046D4F8143198472046FFF71DFCEC
:1047E00008E0607B032805D1324601212046D4F839
:1047F00014319847002070BD70B504460D46294617
:104800002046FFF73FF9012161734FF0A040806817
:1048100020F001004FF0A04188602046FFF7AAF881
:1048200000212046FFF7E0FA1248006840F002003D
:1048300010490860D4F81C0118B10320D4F81C11E9
:1048400088472046FFF740F90A48006820F0020038
:1048500008490860D4F81C0118B10320D4F81C11D1
:1048600088474FF0A040806840F001004FF0A04121
:10487000886070BD0408005001464FF0A040806978
:1048800020F480604FF0A04290614FF4806050614E
:1048900001207047014624480068C0F341022248C5
:1048A000F8300068214B9B5C18431F4BF8331860AD
:1048B0001D48001F006820F480701B4B1B1F1860F0
:1048C0001846006840F4807018601948805C03281E
:1048D00012D1002048704FF4007008814FF0A040C2
:1048E000C06820F470504FF0A043D8601846C068EC
:1048F00040F41050D86010E001204870402008813A
:104900004FF0A040C06820F470504FF0A043D86032
:104910001846C06840F4A050D8604FF400504FF0E3
:10492000A04358610120704708080050C452000895
:104930009A020020F8B505460024002600200090C9
:1049400000BF3E4B18681B1F19683F2200EA010395
:1049500003EA020600BF6DE006F00100002866D001
:1049600000BF630103F6081303F1A0431A68334B39
:1049700018331B68E340DB07180E304B0C3B1968FB
:1049800040EA01031340009300BF009800F00100CB
:10499000E8B12A48183000680121A140884327491E
:1049A000183108600121600100F6081000F1A040F4
:1049B000016021462846FFF7C3FE6879012806D129
:1049C0002CB9A87B042802D12846FFF787F9009864
:1049D00000F0080030B10821600100F6081000F175
:1049E000A0400160009800F0400030B1402160011B
:1049F00000F6081000F1A0400160009800F00200ED
:104A000030B10221600100F6081000F1A040016001
:104A1000009800F0800050B121462846FFF75AFB6D
:104A20008021600100F6081000F1A0400160601CC8
:104A3000C4B27608002E8FD10120F8BD1C080050AA
:104A400001464FF480104FF0A042506101207047A2
:104A500001464FF400104FF0A04250610120704712
:104A6000F8B50546002400260020009000BF3E4B0C
:104A700018681B1F19684FF47C1200EA01031340E9
:104A80001E0C00BF6BE006F00100002864D000BFE0
:104A9000610101F6083101F1A04108683249083985
:104AA00009680140009100BF009800F0010078B350
:104AB0000121600100F6083000F1A0400160687932
:104AC000012817D1610101F5316101F1A0410968A7
:104AD000C1F3120004EB440205F19C0101EBC20199
:104AE00049680A1A04EB440305F19C0101EBC30178
:104AF0000A6100BF2146284600F00CFA68790128B7
:104B000006D12CB9A87B052802D12846FFF7E6F884
:104B1000009800F0020030B10221600100F6083078
:104B200000F1A0400160009800F0080048B128465C
:104B300000F049FB0821600100F6083000F1A040B8
:104B40000160009800F0400030B14021600100F6A3
:104B5000083000F1A0400160601CC4B27608002E4D
:104B600091D10120F8BD00001C08005070B504462A
:104B700000264D48006820F001004B4908600021E4
:104B80002046FFF7ADF900BF0EE0FF21700100F6EF
:104B9000081000F1A0400160700100F6083000F13B
:104BA000A0400160701CC6B22079B042EDDC4FF02D
:104BB000FF303D4914310860081D006820F47C1066
:104BC000091D08600846006820F00F0008604FF0DB
:104BD000011008600B20344910310860091F08607B
:104BE0003148001F006820F4FE602F49091F08604B
:104BF0000846006808602046FFF770F84FF48050C0
:104C00004FF0A041486104F13C052748FC300068A2
:104C100020F003002449FC3108600846006820F4B5
:104C2000402008600846006820F070700860084660
:104C3000006800F4004060B90846006840F0400099
:104C400008600846006808600846006840F40040B4
:104C50000860402068600020287004F19C0513481B
:104C6000006820F00300114908600846006820F43D
:104C7000402008600846006800F4004060B908461B
:104C8000006840F040000860084600680860084678
:104C9000006840F4004008604020686000202870F0
:104CA00001216173012070BD04080050000B005009
:104CB0000146CA7B4A7303224A73D0074FF0A042D1
:104CC00050610120704700002DE9F84307464FF07E
:104CD0000008002500264FF0A040006A00904FF029
:104CE000A040806920F010004FF0A041886100983A
:104CF00000F00F050098C0F30A160098C0F3C13801
:104D0000012D1BD1680100F5316000F1A040006861
:104D10002849084090B9690101F5306101F1A041CD
:104D2000086840F0006020F0004020F080406901F9
:104D300001F5306101F1A041086000BF05EB4501BC
:104D400007F19C0000EBC1040098C0F34340072822
:104D500023D2DFE800F022040511122213001DE027
:104D60004EB1B1B2A068FEF7E7FFA0683044A06082
:104D700020693044206111E010E00FE065B9082E91
:104D80000AD1B8F1000F07D1082107F12400FEF77E
:104D9000D3FF20693044206100E000BF00BF4FF026
:104DA000A040806940F010004FF0A04188610120D0
:104DB000BDE8F8830000F81F10B5044606480068F7
:104DC00020B10548006801682046884708204FF058
:104DD000A0414861012010BD1C0200203EB50446E0
:104DE000E07902901448006800F001000190607BB7
:104DF000032801D1012000E000200090617BE173D5
:104E0000042161739DF8080078B19DF8040060B139
:104E10009DF8000048B10948006840F003000749C8
:104E2000086000210120FDF7D7FC4FF400604FF02F
:104E3000A041486101203EBD08080050000E00500E
:104E40002DE9F0410646002500244FF0A0404769B7
:104E5000D0F81880406900F00100002858D107EA16
:104E600008040CB9BDE8F08104F4002018B1304604
:104E7000FFF7F6FD054304F4802018B13046FFF734
:104E800059FD054304F0020018B102204FF0A04183
:104E9000486104F4806018B13046FFF7EDFC05432B
:104EA00004F4006018B13046FFF798FF054304F0A2
:104EB000004018B13046FFF7FBFE054304F0080040
:104EC00018B13046FFF778FF054304F0100018B121
:104ED0003046FFF7F9FE054304F4805018B1304620
:104EE000FFF744FE054304F4005018B13046FFF7C5
:104EF000D1FC054304F4801018B13046FFF7A0FD43
:104F0000054304F4001018B13046FFF7A1FD054336
:104F10002846A7E770B504460E46002E2ED104F1B0
:104F20009C05A07B032832D1A0696968884218D902
:104F3000A0696968411AA1616079012803D1D5E9A6
:104F400001100844A860A0696968884201D2A0697C
:104F500000E0686883B200212046AA68FFF714FACF
:104F600015E0607B032805D1002211462046D4F8C5
:104F7000143198472046FFF75FF808E0607B03286C
:104F800005D1324600212046D4F81431984700203C
:104F900070BD704770B504460D46A888E0B9E88832
:104FA000D0B9A87800F07F06607B032804D1294699
:104FB0002046FFF7D9F813E00A48006840EA0610D7
:104FC000084908602046FFF737F816B102216173DF
:104FD00006E00121617303E029462046FFF7C4F88B
:104FE00070BD00000008005070B504460D46A8785A
:104FF0002749087008460078012804DD2946204624
:10500000FFF7B2F843E0607B022802D0032838D1D2
:1050100011E01F48007850B11D480078207303212B
:1050200061731B4801782046D4F808219047204638
:10503000FFF702F82AE01648007858B90221617398
:10504000134800782073124801782046D4F80C21C8
:10505000904712E0207B0E49097888420DD0217BD1
:105060002046D4F80C21904709480078207308485E
:1050700001782046D4F8082190472046FEF7DCFF4F
:1050800004E029462046FFF76FF800BF00BF70BD5F
:10509000E002002070470000F8B504460D460026E7
:1050A000287800F0600020B1012826D002285DD1C8
:1050B00039E0607B022802D003281BD100E000BF4A
:1050C000688801280AD10121616129462046D4F867
:1050D000102190472046FEF7AFFF0AE068880228BB
:1050E00007D1287928B92548006800902046FEF7A6
:1050F000A3FF00E000BF00BF3DE0607B022802D0BC
:1051000003280DD104E029462046FFF72DF808E0DA
:105110002879012803DD29462046FFF725F800E01D
:1051200000BF00BF27E0607B022802D003281AD10D
:1051300007E02EB1802E03D031462046FFF7B0F9AC
:1051400012E0688830B92EB1802E03D03146204657
:10515000FFF7A6F929462046D4F8102190472046AB
:10516000FEF76AFF00E000BF00BF04E029462046CA
:10517000FEF7FAFF00BF00BFF8BD000004080050B2
:1051800070B504460D4629462046D4F810219047B4
:1051900070BD10B5024602F1240003780B7043780D
:1051A0004B708478C37804EB03234B8004794379F4
:1051B00004EB03238B808479C37904EB0323CB8036
:1051C000CC88146210BD1CB5044669462046FFF722
:1051D000E0FF9DF8000000F0600020B1202807D01B
:1051E00040280FD109E06946204600F017F811E089
:1051F00069462046FEF742FF0CE06946204600F073
:1052000025F807E09DF8000000F080012046FFF738
:1052100047F900BF00BF00201CBD000070B5054667
:105220000C466078034951F82020214628469047D3
:10523000002070BDA002002010B50346D3F8044141
:1052400054F821000478148010BD704702460020F5
:10525000704770B504460D4609268CB1206878B1B8
:105260002068007860B1A0882168C988884207D189
:1052700021684878FBF7FAFC00F0010000B900262D
:105280000EB9206800E000202860304670BD120191
:10529000000200000040E9288F0200010102030122
:1052A00009022000010104C03209040000020806BE
:1052B0005000070581024000000705010240000080
:1052C0000403090400000300819FE0FC407E80FC91
:1052D0000000010004001000400000010002000076
:1052E000010002000400080010002000000000007F
:1052F0001053000800000020E4020000040200082F
:1053000050540008E4020020AC440000F003000800
:105310004102FF0541138E521B08A0041320021402
:105320002009261408D5251B0849081A81081329C5
:105330003F1408DB3D9208128033011F1E4744339F
:10534000322001180E496E7465726E616C2D5352D5
:10535000414D1035312E303019301401FF0232101A
:105360002301FF121012704205420A5220021D034F
:1053700014160347126912671261124412651A76F5
:105380000C1A6308211A3018124412331A324612CA
:105390005512531A42081A4D081A430812691A6E18
:1053A000061A460E2914126FDA6432124612341AA3
:1053B0007802122D12561231122E3A3004122D128A
:1053C00037127A12381A79221277B27513C0521432
:1053D000089C011B20B4041AE604113C100240048E
:1053E0004D14024004E52119093304115A020C46F8
:1053F0000C040C050C19281A08046D04024001F570
:1054000032401D0C020C0120B9141302011E0D0EB6
:105410000628280D52801C03020150133F47140830
:10542000373F1408934F4C089950082A950C1A4698
:105430000819101A49081AE9101A2D281381511B4E
:10544000084BB01AC5761A0B041A390C410000003B
:04000005080001A945
:00000001FF
